{
  "contractName": "Fogchain_1",
  "abi": [
    {
      "constant": false,
      "inputs": [],
      "name": "kill",
      "outputs": [],
      "payable": false,
      "stateMutability": "nonpayable",
      "type": "function"
    },
    {
      "inputs": [
        {
          "name": "_version",
          "type": "string"
        }
      ],
      "payable": false,
      "stateMutability": "nonpayable",
      "type": "constructor"
    },
    {
      "anonymous": false,
      "inputs": [
        {
          "indexed": false,
          "name": "seq_num",
          "type": "uint256"
        },
        {
          "indexed": false,
          "name": "from",
          "type": "address"
        },
        {
          "indexed": false,
          "name": "amount",
          "type": "int256"
        },
        {
          "indexed": false,
          "name": "portion",
          "type": "uint256"
        },
        {
          "indexed": false,
          "name": "deposit",
          "type": "uint256"
        }
      ],
      "name": "ConsumeEvent",
      "type": "event"
    },
    {
      "anonymous": false,
      "inputs": [
        {
          "indexed": false,
          "name": "seq_num",
          "type": "uint256"
        },
        {
          "indexed": false,
          "name": "from",
          "type": "address"
        },
        {
          "indexed": false,
          "name": "amount",
          "type": "int256"
        }
      ],
      "name": "ProduceEvent",
      "type": "event"
    },
    {
      "anonymous": false,
      "inputs": [
        {
          "indexed": false,
          "name": "seq_num",
          "type": "uint256"
        },
        {
          "indexed": false,
          "name": "from",
          "type": "address"
        },
        {
          "indexed": false,
          "name": "amount",
          "type": "int256"
        },
        {
          "indexed": false,
          "name": "deposit",
          "type": "uint256"
        }
      ],
      "name": "BatteryStoreEvent",
      "type": "event"
    },
    {
      "anonymous": false,
      "inputs": [
        {
          "indexed": false,
          "name": "seq_num",
          "type": "uint256"
        },
        {
          "indexed": false,
          "name": "from",
          "type": "address"
        },
        {
          "indexed": false,
          "name": "amount",
          "type": "int256"
        }
      ],
      "name": "BatteryResellEvent",
      "type": "event"
    },
    {
      "anonymous": false,
      "inputs": [
        {
          "indexed": false,
          "name": "seq_num",
          "type": "uint256"
        },
        {
          "indexed": true,
          "name": "from",
          "type": "address"
        },
        {
          "indexed": false,
          "name": "power_demand",
          "type": "int256"
        }
      ],
      "name": "SettleEvent",
      "type": "event"
    },
    {
      "constant": false,
      "inputs": [
        {
          "name": "seq_num",
          "type": "uint256"
        },
        {
          "name": "amount",
          "type": "int256"
        },
        {
          "name": "portion",
          "type": "uint256"
        },
        {
          "name": "money",
          "type": "uint256"
        }
      ],
      "name": "post_cons",
      "outputs": [
        {
          "name": "",
          "type": "uint256"
        },
        {
          "name": "",
          "type": "address"
        },
        {
          "name": "",
          "type": "int256"
        },
        {
          "name": "",
          "type": "uint256"
        },
        {
          "name": "",
          "type": "uint256"
        }
      ],
      "payable": false,
      "stateMutability": "nonpayable",
      "type": "function"
    },
    {
      "constant": false,
      "inputs": [
        {
          "name": "seq_num",
          "type": "uint256"
        },
        {
          "name": "amount",
          "type": "int256"
        }
      ],
      "name": "post_prod",
      "outputs": [
        {
          "name": "",
          "type": "uint256"
        },
        {
          "name": "",
          "type": "address"
        },
        {
          "name": "",
          "type": "int256"
        }
      ],
      "payable": false,
      "stateMutability": "nonpayable",
      "type": "function"
    },
    {
      "constant": false,
      "inputs": [
        {
          "name": "seq_num",
          "type": "uint256"
        },
        {
          "name": "amount",
          "type": "int256"
        },
        {
          "name": "money",
          "type": "uint256"
        }
      ],
      "name": "post_store",
      "outputs": [
        {
          "name": "",
          "type": "uint256"
        },
        {
          "name": "",
          "type": "address"
        },
        {
          "name": "",
          "type": "int256"
        },
        {
          "name": "",
          "type": "uint256"
        }
      ],
      "payable": false,
      "stateMutability": "nonpayable",
      "type": "function"
    },
    {
      "constant": false,
      "inputs": [
        {
          "name": "seq_num",
          "type": "uint256"
        },
        {
          "name": "amount",
          "type": "int256"
        }
      ],
      "name": "resell",
      "outputs": [
        {
          "name": "",
          "type": "uint256"
        },
        {
          "name": "",
          "type": "address"
        },
        {
          "name": "",
          "type": "int256"
        }
      ],
      "payable": false,
      "stateMutability": "nonpayable",
      "type": "function"
    },
    {
      "constant": false,
      "inputs": [
        {
          "name": "seq_num",
          "type": "uint256"
        }
      ],
      "name": "settle",
      "outputs": [
        {
          "name": "",
          "type": "uint256"
        },
        {
          "name": "",
          "type": "address"
        },
        {
          "name": "",
          "type": "int256"
        }
      ],
      "payable": false,
      "stateMutability": "nonpayable",
      "type": "function"
    }
  ],
  "bytecode": "0x608060405234801561001057600080fd5b5060405161086c38038061086c83398101806040528101908080518201929190505050336000806101000a81548173ffffffffffffffffffffffffffffffffffffffff021916908373ffffffffffffffffffffffffffffffffffffffff1602179055508060019080519060200190610089929190610090565b5050610135565b828054600181600116156101000203166002900490600052602060002090601f016020900481019282601f106100d157805160ff19168380011785556100ff565b828001600101855582156100ff579182015b828111156100fe5782518255916020019190600101906100e3565b5b50905061010c9190610110565b5090565b61013291905b8082111561012e576000816000905550600101610116565b5090565b90565b610728806101446000396000f300608060405260043610610078576000357c0100000000000000000000000000000000000000000000000000000000900463ffffffff168063385336731461007d57806341c0e1b51461010257806389c28179146101195780638df828001461019e578063e225f58914610219578063fb8a5fff146102af575b600080fd5b34801561008957600080fd5b506100b26004803603810190808035906020019092919080359060200190929190505050610356565b604051808481526020018373ffffffffffffffffffffffffffffffffffffffff1673ffffffffffffffffffffffffffffffffffffffff168152602001828152602001935050505060405180910390f35b34801561010e57600080fd5b506101176103ee565b005b34801561012557600080fd5b5061014e600480360381019080803590602001909291908035906020019092919050505061047f565b604051808481526020018373ffffffffffffffffffffffffffffffffffffffff1673ffffffffffffffffffffffffffffffffffffffff168152602001828152602001935050505060405180910390f35b3480156101aa57600080fd5b506101c960048036038101908080359060200190929190505050610517565b604051808481526020018373ffffffffffffffffffffffffffffffffffffffff1673ffffffffffffffffffffffffffffffffffffffff168152602001828152602001935050505060405180910390f35b34801561022557600080fd5b506102586004803603810190808035906020019092919080359060200190929190803590602001909291905050506105a1565b604051808581526020018473ffffffffffffffffffffffffffffffffffffffff1673ffffffffffffffffffffffffffffffffffffffff16815260200183815260200182815260200194505050505060405180910390f35b3480156102bb57600080fd5b506102f860048036038101908080359060200190929190803590602001909291908035906020019092919080359060200190929190505050610647565b604051808681526020018573ffffffffffffffffffffffffffffffffffffffff1673ffffffffffffffffffffffffffffffffffffffff1681526020018481526020018381526020018281526020019550505050505060405180910390f35b6000806000836002600082825401925050819055507fb4003b46afb426d8f2d35c3216395a5f270b949797871c641720a00f42e6a5ed853386604051808481526020018373ffffffffffffffffffffffffffffffffffffffff1673ffffffffffffffffffffffffffffffffffffffff168152602001828152602001935050505060405180910390a18433859250925092509250925092565b6000809054906101000a900473ffffffffffffffffffffffffffffffffffffffff1673ffffffffffffffffffffffffffffffffffffffff163373ffffffffffffffffffffffffffffffffffffffff16141561047d576000809054906101000a900473ffffffffffffffffffffffffffffffffffffffff1673ffffffffffffffffffffffffffffffffffffffff16ff5b565b6000806000836002600082825403925050819055507f61c2a4168444867d93be62299c9c9d4d3623cae8db102b4b2e0129be43fbc199853386604051808481526020018373ffffffffffffffffffffffffffffffffffffffff1673ffffffffffffffffffffffffffffffffffffffff168152602001828152602001935050505060405180910390a18433859250925092509250925092565b600080600080600090506000600254131561053a57600254905060006002819055505b3373ffffffffffffffffffffffffffffffffffffffff167fa48830ba3fb5ea7af8d991f0075dec4566c61c8d54c0b1bfd02393f286c9adbd8683604051808381526020018281526020019250505060405180910390a2843382935093509350509193909250565b600080600080856002600082825403925050819055507fd0e04ed6ffd4481c39af1d9cd60a023e873fd8c9a78f8ca2f4e08781041fe34987338888604051808581526020018473ffffffffffffffffffffffffffffffffffffffff1673ffffffffffffffffffffffffffffffffffffffff16815260200183815260200182815260200194505050505060405180910390a186338787935093509350935093509350935093565b6000806000806000876002600082825401925050819055507f713ee1a023ea6b48dc98fb871450f7e8bf6c131e62b2f8670d238ff8575c661189338a8a8a604051808681526020018573ffffffffffffffffffffffffffffffffffffffff1673ffffffffffffffffffffffffffffffffffffffff1681526020018481526020018381526020018281526020019550505050505060405180910390a18833898989945094509450945094509450945094509450945600a165627a7a7230582061fda32e58c93309c3dbbf07e4c752c87909336e01ba9ef8e5dd6748bb1595b40029",
  "source": "pragma solidity ^0.4.23;\n\ncontract Mortal {\n    /* Define variable owner of the type address */\n    address owner;\n\n    /* This function is executed at initialization and sets the owner of the contract */\n    function Mortal() public { owner = msg.sender; }\n\n    /* Function to recover the funds on the contract */\n    function kill() public { if (msg.sender == owner) selfdestruct(owner); }\n}\n\ncontract Fogchain_1 is Mortal {\n    /* Define variable greeting of the type string */\n    string version;\n    int power_demand;\n\n    event ConsumeEvent(\n        uint seq_num,\n        address from,\n        int amount,\n        uint portion,\n        uint deposit);\n\n    event ProduceEvent(\n        uint seq_num,\n        address from,\n        int amount);\n\n    event BatteryStoreEvent(\n        uint seq_num,\n        address from,\n        int amount,\n        uint deposit);\n\n    event BatteryResellEvent(\n        uint seq_num,\n        address from,\n        int amount);\n\n    event SettleEvent(\n        uint seq_num,\n        address indexed from,\n        int power_demand);\n\n    /* This runs when the contract is executed */\n    function Fogchain_1(string _version) public {\n        version = _version;\n    }\n\n    /* post consumption function */\n    function post_cons(uint seq_num, int amount, uint portion, uint money) public \n    returns (uint, address, int, uint, uint) {\n        power_demand += amount;\n        emit ConsumeEvent(seq_num, msg.sender, amount, portion, money);\n        return (seq_num, msg.sender, amount, portion, money);\n    }\n\n    function post_prod(uint seq_num, int amount) public\n    returns (uint, address, int){\n        power_demand -= amount;\n        emit ProduceEvent(seq_num, msg.sender, amount);\n        return (seq_num, msg.sender, amount);\n    }\n\n    function post_store(uint seq_num, int amount, uint money) public\n    returns (uint, address, int, uint){\n        power_demand -= amount;\n        emit BatteryStoreEvent(seq_num, msg.sender, amount, money);\n        return (seq_num, msg.sender, amount, money);\n    }\n\n    function resell(uint seq_num, int amount) public\n    returns (uint, address, int){\n        power_demand += amount;\n        emit BatteryResellEvent(seq_num, msg.sender, amount);\n        return (seq_num, msg.sender, amount);\n    }\n\n    function settle(uint seq_num) public\n    returns (uint, address, int){\n        int req_power = 0;\n        if(power_demand>0){\n            req_power = power_demand;\n            power_demand = 0;\n        }\n        emit SettleEvent(seq_num, msg.sender, req_power);\n        return (seq_num, msg.sender, req_power);\n    }\n}",
  "sourcePath": "/home/pi/Desktop/Blockchain/Fogchain/smart-contract/contracts/Fogchain_1.sol",
  "compiler": {
    "name": "solc",
    "version": "0.4.24+commit.e67f0147.Emscripten.clang"
  },
  "schemaVersion": "2.0.0",
  "updatedAt": "2018-06-05T03:56:41.766Z"
}