{
  "contractName": "Fogchain_2",
  "abi": [
    {
      "constant": true,
      "inputs": [],
      "name": "TIME_START",
      "outputs": [
        {
          "name": "",
          "type": "uint256"
        }
      ],
      "payable": false,
      "stateMutability": "view",
      "type": "function"
    },
    {
      "constant": true,
      "inputs": [],
      "name": "POWER_STATION",
      "outputs": [
        {
          "name": "",
          "type": "uint8"
        }
      ],
      "payable": false,
      "stateMutability": "view",
      "type": "function"
    },
    {
      "constant": false,
      "inputs": [],
      "name": "kill",
      "outputs": [],
      "payable": false,
      "stateMutability": "nonpayable",
      "type": "function"
    },
    {
      "constant": true,
      "inputs": [
        {
          "name": "",
          "type": "uint256"
        }
      ],
      "name": "prosumer_addrs",
      "outputs": [
        {
          "name": "",
          "type": "address"
        }
      ],
      "payable": false,
      "stateMutability": "view",
      "type": "function"
    },
    {
      "constant": true,
      "inputs": [],
      "name": "RETAILER",
      "outputs": [
        {
          "name": "",
          "type": "uint8"
        }
      ],
      "payable": false,
      "stateMutability": "view",
      "type": "function"
    },
    {
      "constant": true,
      "inputs": [
        {
          "name": "",
          "type": "uint256"
        }
      ],
      "name": "consumer_addrs",
      "outputs": [
        {
          "name": "",
          "type": "address"
        }
      ],
      "payable": false,
      "stateMutability": "view",
      "type": "function"
    },
    {
      "constant": true,
      "inputs": [],
      "name": "latest_price",
      "outputs": [
        {
          "name": "",
          "type": "uint256"
        }
      ],
      "payable": false,
      "stateMutability": "view",
      "type": "function"
    },
    {
      "constant": true,
      "inputs": [
        {
          "name": "",
          "type": "uint256"
        }
      ],
      "name": "pure_consumer_addrs",
      "outputs": [
        {
          "name": "",
          "type": "address"
        }
      ],
      "payable": false,
      "stateMutability": "view",
      "type": "function"
    },
    {
      "constant": true,
      "inputs": [
        {
          "name": "",
          "type": "uint256"
        }
      ],
      "name": "power_station_addrs",
      "outputs": [
        {
          "name": "",
          "type": "address"
        }
      ],
      "payable": false,
      "stateMutability": "view",
      "type": "function"
    },
    {
      "constant": true,
      "inputs": [],
      "name": "SEQUENCE_INV",
      "outputs": [
        {
          "name": "",
          "type": "uint256"
        }
      ],
      "payable": false,
      "stateMutability": "view",
      "type": "function"
    },
    {
      "constant": true,
      "inputs": [],
      "name": "PROSUMER",
      "outputs": [
        {
          "name": "",
          "type": "uint8"
        }
      ],
      "payable": false,
      "stateMutability": "view",
      "type": "function"
    },
    {
      "constant": true,
      "inputs": [],
      "name": "CONSUMER",
      "outputs": [
        {
          "name": "",
          "type": "uint8"
        }
      ],
      "payable": false,
      "stateMutability": "view",
      "type": "function"
    },
    {
      "constant": true,
      "inputs": [
        {
          "name": "",
          "type": "uint256"
        }
      ],
      "name": "retailer_addrs",
      "outputs": [
        {
          "name": "",
          "type": "address"
        }
      ],
      "payable": false,
      "stateMutability": "view",
      "type": "function"
    },
    {
      "constant": true,
      "inputs": [],
      "name": "UNRENEWABLE_PRICE",
      "outputs": [
        {
          "name": "",
          "type": "uint256"
        }
      ],
      "payable": false,
      "stateMutability": "view",
      "type": "function"
    },
    {
      "constant": true,
      "inputs": [],
      "name": "last_settlement",
      "outputs": [
        {
          "name": "",
          "type": "uint256"
        }
      ],
      "payable": false,
      "stateMutability": "view",
      "type": "function"
    },
    {
      "constant": true,
      "inputs": [
        {
          "name": "",
          "type": "address"
        }
      ],
      "name": "account_map",
      "outputs": [
        {
          "name": "role",
          "type": "uint8"
        },
        {
          "name": "consumption",
          "type": "uint256"
        },
        {
          "name": "output",
          "type": "uint256"
        },
        {
          "name": "bill",
          "type": "int256"
        }
      ],
      "payable": false,
      "stateMutability": "view",
      "type": "function"
    },
    {
      "constant": true,
      "inputs": [],
      "name": "RENEWABLE_PRICE",
      "outputs": [
        {
          "name": "",
          "type": "uint256"
        }
      ],
      "payable": false,
      "stateMutability": "view",
      "type": "function"
    },
    {
      "inputs": [
        {
          "name": "seq_blk_interval",
          "type": "uint256"
        },
        {
          "name": "renew_price",
          "type": "uint256"
        },
        {
          "name": "unre_price",
          "type": "uint256"
        }
      ],
      "payable": false,
      "stateMutability": "nonpayable",
      "type": "constructor"
    },
    {
      "anonymous": false,
      "inputs": [
        {
          "indexed": true,
          "name": "seqnum",
          "type": "uint256"
        },
        {
          "indexed": true,
          "name": "cons_addr",
          "type": "address"
        },
        {
          "indexed": false,
          "name": "cons",
          "type": "uint256"
        }
      ],
      "name": "ConsEvent",
      "type": "event"
    },
    {
      "anonymous": false,
      "inputs": [
        {
          "indexed": true,
          "name": "seqnum",
          "type": "uint256"
        },
        {
          "indexed": true,
          "name": "prod_addr",
          "type": "address"
        },
        {
          "indexed": false,
          "name": "prod",
          "type": "uint256"
        }
      ],
      "name": "ProdEvent",
      "type": "event"
    },
    {
      "anonymous": false,
      "inputs": [
        {
          "indexed": true,
          "name": "seqnum",
          "type": "uint256"
        },
        {
          "indexed": true,
          "name": "sell_addr",
          "type": "address"
        },
        {
          "indexed": false,
          "name": "sold",
          "type": "uint256"
        }
      ],
      "name": "SellEvent",
      "type": "event"
    },
    {
      "anonymous": false,
      "inputs": [
        {
          "indexed": true,
          "name": "seqnum",
          "type": "uint256"
        },
        {
          "indexed": true,
          "name": "role",
          "type": "uint256"
        },
        {
          "indexed": true,
          "name": "account_addr",
          "type": "address"
        },
        {
          "indexed": false,
          "name": "consumption",
          "type": "uint256"
        },
        {
          "indexed": false,
          "name": "output",
          "type": "uint256"
        },
        {
          "indexed": false,
          "name": "expense",
          "type": "int256"
        }
      ],
      "name": "SettleEvent",
      "type": "event"
    },
    {
      "anonymous": false,
      "inputs": [
        {
          "indexed": true,
          "name": "seqnum",
          "type": "uint256"
        },
        {
          "indexed": true,
          "name": "ps_addr",
          "type": "address"
        },
        {
          "indexed": false,
          "name": "generation",
          "type": "uint256"
        }
      ],
      "name": "PsGenEvent",
      "type": "event"
    },
    {
      "anonymous": false,
      "inputs": [
        {
          "indexed": true,
          "name": "seqnum",
          "type": "uint256"
        },
        {
          "indexed": false,
          "name": "c_price",
          "type": "uint256"
        },
        {
          "indexed": false,
          "name": "ps_price",
          "type": "uint256"
        },
        {
          "indexed": false,
          "name": "bs_price",
          "type": "uint256"
        },
        {
          "indexed": false,
          "name": "p_price",
          "type": "uint256"
        }
      ],
      "name": "PriceEvent",
      "type": "event"
    },
    {
      "constant": true,
      "inputs": [],
      "name": "get_current_seqnum",
      "outputs": [
        {
          "name": "seqnum",
          "type": "uint256"
        }
      ],
      "payable": false,
      "stateMutability": "view",
      "type": "function"
    },
    {
      "constant": true,
      "inputs": [],
      "name": "get_last_settlement",
      "outputs": [
        {
          "name": "seqnum",
          "type": "uint256"
        }
      ],
      "payable": false,
      "stateMutability": "view",
      "type": "function"
    },
    {
      "constant": true,
      "inputs": [
        {
          "name": "account",
          "type": "address"
        }
      ],
      "name": "get_bill",
      "outputs": [
        {
          "name": "expense",
          "type": "int256"
        }
      ],
      "payable": false,
      "stateMutability": "view",
      "type": "function"
    },
    {
      "constant": false,
      "inputs": [],
      "name": "register_consumer",
      "outputs": [],
      "payable": false,
      "stateMutability": "nonpayable",
      "type": "function"
    },
    {
      "constant": false,
      "inputs": [],
      "name": "register_prosumer",
      "outputs": [],
      "payable": false,
      "stateMutability": "nonpayable",
      "type": "function"
    },
    {
      "constant": false,
      "inputs": [],
      "name": "register_battery_station",
      "outputs": [],
      "payable": false,
      "stateMutability": "nonpayable",
      "type": "function"
    },
    {
      "constant": false,
      "inputs": [],
      "name": "register_power_station",
      "outputs": [],
      "payable": false,
      "stateMutability": "nonpayable",
      "type": "function"
    },
    {
      "constant": false,
      "inputs": [
        {
          "name": "amount",
          "type": "uint256"
        }
      ],
      "name": "post_cons",
      "outputs": [
        {
          "name": "seqnum",
          "type": "uint256"
        },
        {
          "name": "cons",
          "type": "uint256"
        }
      ],
      "payable": false,
      "stateMutability": "nonpayable",
      "type": "function"
    },
    {
      "constant": false,
      "inputs": [
        {
          "name": "amount",
          "type": "uint256"
        }
      ],
      "name": "post_prod",
      "outputs": [
        {
          "name": "seqnum",
          "type": "uint256"
        },
        {
          "name": "prod",
          "type": "uint256"
        }
      ],
      "payable": false,
      "stateMutability": "nonpayable",
      "type": "function"
    },
    {
      "constant": false,
      "inputs": [
        {
          "name": "amount",
          "type": "uint256"
        }
      ],
      "name": "post_sell",
      "outputs": [
        {
          "name": "seqnum",
          "type": "uint256"
        },
        {
          "name": "sold",
          "type": "uint256"
        }
      ],
      "payable": false,
      "stateMutability": "nonpayable",
      "type": "function"
    },
    {
      "constant": false,
      "inputs": [
        {
          "name": "amount",
          "type": "uint256"
        }
      ],
      "name": "post_ps_gen",
      "outputs": [
        {
          "name": "seqnum",
          "type": "uint256"
        },
        {
          "name": "generation",
          "type": "uint256"
        }
      ],
      "payable": false,
      "stateMutability": "nonpayable",
      "type": "function"
    },
    {
      "constant": false,
      "inputs": [],
      "name": "settle",
      "outputs": [
        {
          "name": "seqnum",
          "type": "uint256"
        }
      ],
      "payable": false,
      "stateMutability": "nonpayable",
      "type": "function"
    },
    {
      "constant": true,
      "inputs": [],
      "name": "get_consumer_addresses",
      "outputs": [
        {
          "name": "",
          "type": "address[]"
        }
      ],
      "payable": false,
      "stateMutability": "view",
      "type": "function"
    },
    {
      "constant": true,
      "inputs": [],
      "name": "get_prosumer_addresses",
      "outputs": [
        {
          "name": "",
          "type": "address[]"
        }
      ],
      "payable": false,
      "stateMutability": "view",
      "type": "function"
    },
    {
      "constant": true,
      "inputs": [],
      "name": "get_retailer_addresses",
      "outputs": [
        {
          "name": "",
          "type": "address[]"
        }
      ],
      "payable": false,
      "stateMutability": "view",
      "type": "function"
    },
    {
      "constant": true,
      "inputs": [],
      "name": "get_ps_addresses",
      "outputs": [
        {
          "name": "",
          "type": "address[]"
        }
      ],
      "payable": false,
      "stateMutability": "view",
      "type": "function"
    },
    {
      "constant": true,
      "inputs": [],
      "name": "get_address_number",
      "outputs": [
        {
          "name": "",
          "type": "uint256"
        }
      ],
      "payable": false,
      "stateMutability": "view",
      "type": "function"
    }
  ],
  "bytecode": "0x608060405234801561001057600080fd5b50604051606080613003833981018060405281019080805190602001909291908051906020019092919080519060200190929190505050336000806101000a81548173ffffffffffffffffffffffffffffffffffffffff021916908373ffffffffffffffffffffffffffffffffffffffff160217905550826002819055504260018190555081600381905550806004819055506002600454600354018115156100b557fe5b046005819055506000600681905550505050612f2d806100d66000396000f3006080604052600436106101ac576000357c0100000000000000000000000000000000000000000000000000000000900463ffffffff1680630bf05e55146101b15780630f76214f146101c857806311da60b4146101f3578063120d9a681461021e5780632468d3c11461024f57806341c0e1b51461027a57806346f592ec14610291578063535de5e9146102fe5780635498b6541461032f5780635aad70a21461039c5780636839b44914610408578063709c1211146104335780637942b17e146104a05780637aa74ce71461050d5780637f258178146105555780638658960d146105c1578063880c21fb1461062d57806394561a17146106585780639a7f1822146106895780639c896d23146106a05780639e9388f0146106d1578063a3052bc11461073e578063b0983d4214610769578063b7376248146107c0578063befafa33146107eb578063c0ccde6714610857578063cd23ec331461086e578063d40dfda314610899578063d5232003146108c4578063e28913b31461090c578063e77986dc14610954578063edc794dc1461099c578063fb415e92146109b3578063fff27d7114610a25575b600080fd5b3480156101bd57600080fd5b506101c6610a50565b005b3480156101d457600080fd5b506101dd610bdb565b6040518082815260200191505060405180910390f35b3480156101ff57600080fd5b50610208610be1565b6040518082815260200191505060405180910390f35b34801561022a57600080fd5b50610233611b93565b604051808260ff1660ff16815260200191505060405180910390f35b34801561025b57600080fd5b50610264611b98565b6040518082815260200191505060405180910390f35b34801561028657600080fd5b5061028f611bb6565b005b34801561029d57600080fd5b506102bc60048036038101908080359060200190929190505050611c47565b604051808273ffffffffffffffffffffffffffffffffffffffff1673ffffffffffffffffffffffffffffffffffffffff16815260200191505060405180910390f35b34801561030a57600080fd5b50610313611c85565b604051808260ff1660ff16815260200191505060405180910390f35b34801561033b57600080fd5b5061035a60048036038101908080359060200190929190505050611c8a565b604051808273ffffffffffffffffffffffffffffffffffffffff1673ffffffffffffffffffffffffffffffffffffffff16815260200191505060405180910390f35b3480156103a857600080fd5b506103b1611cc8565b6040518080602001828103825283818151815260200191508051906020019060200280838360005b838110156103f45780820151818401526020810190506103d9565b505050509050019250505060405180910390f35b34801561041457600080fd5b5061041d611d56565b6040518082815260200191505060405180910390f35b34801561043f57600080fd5b5061045e60048036038101908080359060200190929190505050611d5c565b604051808273ffffffffffffffffffffffffffffffffffffffff1673ffffffffffffffffffffffffffffffffffffffff16815260200191505060405180910390f35b3480156104ac57600080fd5b506104cb60048036038101908080359060200190929190505050611d9a565b604051808273ffffffffffffffffffffffffffffffffffffffff1673ffffffffffffffffffffffffffffffffffffffff16815260200191505060405180910390f35b34801561051957600080fd5b5061053860048036038101908080359060200190929190505050611dd8565b604051808381526020018281526020019250505060405180910390f35b34801561056157600080fd5b5061056a612050565b6040518080602001828103825283818151815260200191508051906020019060200280838360005b838110156105ad578082015181840152602081019050610592565b505050509050019250505060405180910390f35b3480156105cd57600080fd5b506105d66120de565b6040518080602001828103825283818151815260200191508051906020019060200280838360005b838110156106195780820151818401526020810190506105fe565b505050509050019250505060405180910390f35b34801561063957600080fd5b5061064261216c565b6040518082815260200191505060405180910390f35b34801561066457600080fd5b5061066d612172565b604051808260ff1660ff16815260200191505060405180910390f35b34801561069557600080fd5b5061069e612177565b005b3480156106ac57600080fd5b506106b5612302565b604051808260ff1660ff16815260200191505060405180910390f35b3480156106dd57600080fd5b506106fc60048036038101908080359060200190929190505050612307565b604051808273ffffffffffffffffffffffffffffffffffffffff1673ffffffffffffffffffffffffffffffffffffffff16815260200191505060405180910390f35b34801561074a57600080fd5b50610753612345565b6040518082815260200191505060405180910390f35b34801561077557600080fd5b506107aa600480360381019080803573ffffffffffffffffffffffffffffffffffffffff169060200190929190505050612352565b6040518082815260200191505060405180910390f35b3480156107cc57600080fd5b506107d561239e565b6040518082815260200191505060405180910390f35b3480156107f757600080fd5b506108006123a8565b6040518080602001828103825283818151815260200191508051906020019060200280838360005b83811015610843578082015181840152602081019050610828565b505050509050019250505060405180910390f35b34801561086357600080fd5b5061086c612436565b005b34801561087a57600080fd5b506108836125c1565b6040518082815260200191505060405180910390f35b3480156108a557600080fd5b506108ae6125c7565b6040518082815260200191505060405180910390f35b3480156108d057600080fd5b506108ef600480360381019080803590602001909291905050506125cd565b604051808381526020018281526020019250505060405180910390f35b34801561091857600080fd5b5061093760048036038101908080359060200190929190505050612845565b604051808381526020018281526020019250505060405180910390f35b34801561096057600080fd5b5061097f60048036038101908080359060200190929190505050612abb565b604051808381526020018281526020019250505060405180910390f35b3480156109a857600080fd5b506109b1612d33565b005b3480156109bf57600080fd5b506109f4600480360381019080803573ffffffffffffffffffffffffffffffffffffffff169060200190929190505050612ebe565b604051808560ff1660ff16815260200184815260200183815260200182815260200194505050505060405180910390f35b348015610a3157600080fd5b50610a3a612efb565b6040518082815260200191505060405180910390f35b6000600760003373ffffffffffffffffffffffffffffffffffffffff1673ffffffffffffffffffffffffffffffffffffffff16815260200190815260200160002060000160009054906101000a900460ff1660ff16141515610ab157600080fd5b6003600760003373ffffffffffffffffffffffffffffffffffffffff1673ffffffffffffffffffffffffffffffffffffffff16815260200190815260200160002060000160006101000a81548160ff021916908360ff16021790555060093390806001815401808255809150509060018203906000526020600020016000909192909190916101000a81548173ffffffffffffffffffffffffffffffffffffffff021916908373ffffffffffffffffffffffffffffffffffffffff16021790555050600c3390806001815401808255809150509060018203906000526020600020016000909192909190916101000a81548173ffffffffffffffffffffffffffffffffffffffff021916908373ffffffffffffffffffffffffffffffffffffffff16021790555050565b60015481565b600080600080600080600080600080600080610bfb611b98565b9a506001600654018b111515610c145760009b50611b85565b60009950600098506000975060009650600096505b6009805490508767ffffffffffffffff161015610cd7576007600060098967ffffffffffffffff16815481101515610c5d57fe5b9060005260206000200160009054906101000a900473ffffffffffffffffffffffffffffffffffffffff1673ffffffffffffffffffffffffffffffffffffffff1673ffffffffffffffffffffffffffffffffffffffff168152602001908152602001600020600101548a0199508680600101975050610c29565b600096505b600b805490508767ffffffffffffffff161015610d8a5760076000600b8967ffffffffffffffff16815481101515610d1057fe5b9060005260206000200160009054906101000a900473ffffffffffffffffffffffffffffffffffffffff1673ffffffffffffffffffffffffffffffffffffffff1673ffffffffffffffffffffffffffffffffffffffff16815260200190815260200160002060020154890198508680600101975050610cdc565b600096505b600c805490508767ffffffffffffffff161015610e3d5760076000600c8967ffffffffffffffff16815481101515610dc357fe5b9060005260206000200160009054906101000a900473ffffffffffffffffffffffffffffffffffffffff1673ffffffffffffffffffffffffffffffffffffffff1673ffffffffffffffffffffffffffffffffffffffff16815260200190815260200160002060020154880197508680600101975050610d8f565b87898b030395508860035402866004540289600554020101945060008a141515610e74578985811515610e6c57fe5b049350610e7a565b60055493505b60018b037f0515a3f30625eb6d79e9999f668acbc2aa93733c063acaf2d98fb0a8392199e1856004546005546003546040518085815260200184815260200183815260200182815260200194505050505060405180910390a26000600d805490501415610f40576000600460ff1660018d037ffd664a6402fc46f21f0b8e750b4512478d7377ee5bcb982474ee48281501a5f960008a6004548c0260000360405180848152602001838152602001828152602001935050505060405180910390a4611184565b600454860260000392508260076000600d6000815481101515610f5f57fe5b9060005260206000200160009054906101000a900473ffffffffffffffffffffffffffffffffffffffff1673ffffffffffffffffffffffffffffffffffffffff1673ffffffffffffffffffffffffffffffffffffffff16815260200190815260200160002060030160008282540192505081905550600d6000815481101515610fe457fe5b9060005260206000200160009054906101000a900473ffffffffffffffffffffffffffffffffffffffff1673ffffffffffffffffffffffffffffffffffffffff16600460ff1660018d037ffd664a6402fc46f21f0b8e750b4512478d7377ee5bcb982474ee48281501a5f960076000600d600081548110151561106357fe5b9060005260206000200160009054906101000a900473ffffffffffffffffffffffffffffffffffffffff1673ffffffffffffffffffffffffffffffffffffffff1673ffffffffffffffffffffffffffffffffffffffff168152602001908152602001600020600101548a8860405180848152602001838152602001828152602001935050505060405180910390a4600160086000600d600081548110151561110757fe5b9060005260206000200160009054906101000a900473ffffffffffffffffffffffffffffffffffffffff1673ffffffffffffffffffffffffffffffffffffffff1673ffffffffffffffffffffffffffffffffffffffff16815260200190815260200160002060006101000a81548160ff0219169083151502179055505b600096505b600c805490508767ffffffffffffffff1610156114a05760076000600c8967ffffffffffffffff168154811015156111bd57fe5b9060005260206000200160009054906101000a900473ffffffffffffffffffffffffffffffffffffffff1673ffffffffffffffffffffffffffffffffffffffff1673ffffffffffffffffffffffffffffffffffffffff16815260200190815260200160002060010154915060076000600c8967ffffffffffffffff1681548110151561124557fe5b9060005260206000200160009054906101000a900473ffffffffffffffffffffffffffffffffffffffff1673ffffffffffffffffffffffffffffffffffffffff1673ffffffffffffffffffffffffffffffffffffffff16815260200190815260200160002060020154905080600554028285020392508260076000600c8a67ffffffffffffffff168154811015156112d957fe5b9060005260206000200160009054906101000a900473ffffffffffffffffffffffffffffffffffffffff1673ffffffffffffffffffffffffffffffffffffffff1673ffffffffffffffffffffffffffffffffffffffff16815260200190815260200160002060030160008282540192505081905550600c8767ffffffffffffffff1681548110151561136757fe5b9060005260206000200160009054906101000a900473ffffffffffffffffffffffffffffffffffffffff1673ffffffffffffffffffffffffffffffffffffffff16600360ff1660018d037ffd664a6402fc46f21f0b8e750b4512478d7377ee5bcb982474ee48281501a5f985858860405180848152602001838152602001828152602001935050505060405180910390a4600160086000600c8a67ffffffffffffffff1681548110151561141757fe5b9060005260206000200160009054906101000a900473ffffffffffffffffffffffffffffffffffffffff1673ffffffffffffffffffffffffffffffffffffffff1673ffffffffffffffffffffffffffffffffffffffff16815260200190815260200160002060006101000a81548160ff0219169083151502179055508680600101975050611189565b600096505b600b805490508767ffffffffffffffff1610156117bc5760076000600b8967ffffffffffffffff168154811015156114d957fe5b9060005260206000200160009054906101000a900473ffffffffffffffffffffffffffffffffffffffff1673ffffffffffffffffffffffffffffffffffffffff1673ffffffffffffffffffffffffffffffffffffffff16815260200190815260200160002060010154915060076000600b8967ffffffffffffffff1681548110151561156157fe5b9060005260206000200160009054906101000a900473ffffffffffffffffffffffffffffffffffffffff1673ffffffffffffffffffffffffffffffffffffffff1673ffffffffffffffffffffffffffffffffffffffff16815260200190815260200160002060020154905080600354028285020392508260076000600b8a67ffffffffffffffff168154811015156115f557fe5b9060005260206000200160009054906101000a900473ffffffffffffffffffffffffffffffffffffffff1673ffffffffffffffffffffffffffffffffffffffff1673ffffffffffffffffffffffffffffffffffffffff16815260200190815260200160002060030160008282540192505081905550600b8767ffffffffffffffff1681548110151561168357fe5b9060005260206000200160009054906101000a900473ffffffffffffffffffffffffffffffffffffffff1673ffffffffffffffffffffffffffffffffffffffff16600260ff1660018d037ffd664a6402fc46f21f0b8e750b4512478d7377ee5bcb982474ee48281501a5f985858860405180848152602001838152602001828152602001935050505060405180910390a4600160086000600b8a67ffffffffffffffff1681548110151561173357fe5b9060005260206000200160009054906101000a900473ffffffffffffffffffffffffffffffffffffffff1673ffffffffffffffffffffffffffffffffffffffff1673ffffffffffffffffffffffffffffffffffffffff16815260200190815260200160002060006101000a81548160ff02191690831515021790555086806001019750506114a5565b600096505b6009805490508767ffffffffffffffff161015611b70576007600060098967ffffffffffffffff168154811015156117f557fe5b9060005260206000200160009054906101000a900473ffffffffffffffffffffffffffffffffffffffff1673ffffffffffffffffffffffffffffffffffffffff1673ffffffffffffffffffffffffffffffffffffffff168152602001908152602001600020600101549150600115156008600060098a67ffffffffffffffff1681548110151561188157fe5b9060005260206000200160009054906101000a900473ffffffffffffffffffffffffffffffffffffffff1673ffffffffffffffffffffffffffffffffffffffff1673ffffffffffffffffffffffffffffffffffffffff16815260200190815260200160002060009054906101000a900460ff161515141561199c5760006008600060098a67ffffffffffffffff1681548110151561191b57fe5b9060005260206000200160009054906101000a900473ffffffffffffffffffffffffffffffffffffffff1673ffffffffffffffffffffffffffffffffffffffff1673ffffffffffffffffffffffffffffffffffffffff16815260200190815260200160002060006101000a81548160ff021916908315150217905550611a4d565b818402925060098767ffffffffffffffff168154811015156119ba57fe5b9060005260206000200160009054906101000a900473ffffffffffffffffffffffffffffffffffffffff1673ffffffffffffffffffffffffffffffffffffffff16600160ff1660018d037ffd664a6402fc46f21f0b8e750b4512478d7377ee5bcb982474ee48281501a5f98560008860405180848152602001838152602001828152602001935050505060405180910390a45b60006007600060098a67ffffffffffffffff16815481101515611a6c57fe5b9060005260206000200160009054906101000a900473ffffffffffffffffffffffffffffffffffffffff1673ffffffffffffffffffffffffffffffffffffffff1673ffffffffffffffffffffffffffffffffffffffff1681526020019081526020016000206002018190555060006007600060098a67ffffffffffffffff16815481101515611af757fe5b9060005260206000200160009054906101000a900473ffffffffffffffffffffffffffffffffffffffff1673ffffffffffffffffffffffffffffffffffffffff1673ffffffffffffffffffffffffffffffffffffffff1681526020019081526020016000206001018190555086806001019750506117c1565b8360058190555060018b036006819055508a9b505b505050505050505050505090565b600481565b6000806002546001544203811515611bac57fe5b0490508091505090565b6000809054906101000a900473ffffffffffffffffffffffffffffffffffffffff1673ffffffffffffffffffffffffffffffffffffffff163373ffffffffffffffffffffffffffffffffffffffff161415611c45576000809054906101000a900473ffffffffffffffffffffffffffffffffffffffff1673ffffffffffffffffffffffffffffffffffffffff16ff5b565b600b81815481101515611c5657fe5b906000526020600020016000915054906101000a900473ffffffffffffffffffffffffffffffffffffffff1681565b600381565b600981815481101515611c9957fe5b906000526020600020016000915054906101000a900473ffffffffffffffffffffffffffffffffffffffff1681565b6060600b805480602002602001604051908101604052809291908181526020018280548015611d4c57602002820191906000526020600020905b8160009054906101000a900473ffffffffffffffffffffffffffffffffffffffff1673ffffffffffffffffffffffffffffffffffffffff1681526020019060010190808311611d02575b5050505050905090565b60055481565b600a81815481101515611d6b57fe5b906000526020600020016000915054906101000a900473ffffffffffffffffffffffffffffffffffffffff1681565b600d81815481101515611da957fe5b906000526020600020016000915054906101000a900473ffffffffffffffffffffffffffffffffffffffff1681565b600080600080600160065401611dec611b98565b11151515611e88576040517f08c379a00000000000000000000000000000000000000000000000000000000081526004018080602001828103825260238152602001807f7468652070726576696f757320626c6f636b20686173206265656e207365747481526020017f6c6564000000000000000000000000000000000000000000000000000000000081525060400191505060405180910390fd5b600260ff16600760003373ffffffffffffffffffffffffffffffffffffffff1673ffffffffffffffffffffffffffffffffffffffff16815260200190815260200160002060000160009054906101000a900460ff1660ff16141515611f55576040517f08c379a00000000000000000000000000000000000000000000000000000000081526004018080602001828103825260138152602001807f636f6e736974656e74206e6f646520747970650000000000000000000000000081525060200191505060405180910390fd5b84600760003373ffffffffffffffffffffffffffffffffffffffff1673ffffffffffffffffffffffffffffffffffffffff16815260200190815260200160002060020160008282540192505081905550611fad611b98565b9150600760003373ffffffffffffffffffffffffffffffffffffffff1673ffffffffffffffffffffffffffffffffffffffff1681526020019081526020016000206002015490503373ffffffffffffffffffffffffffffffffffffffff16827f93dd87282bb52c163ac2f6eceb526fa9671dfc2ebba6cedd8643a9b6f7e810bc836040518082815260200191505060405180910390a38381935093505050915091565b6060600d8054806020026020016040519081016040528092919081815260200182805480156120d457602002820191906000526020600020905b8160009054906101000a900473ffffffffffffffffffffffffffffffffffffffff1673ffffffffffffffffffffffffffffffffffffffff168152602001906001019080831161208a575b5050505050905090565b6060600a80548060200260200160405190810160405280929190818152602001828054801561216257602002820191906000526020600020905b8160009054906101000a900473ffffffffffffffffffffffffffffffffffffffff1673ffffffffffffffffffffffffffffffffffffffff1681526020019060010190808311612118575b5050505050905090565b60025481565b600281565b6000600760003373ffffffffffffffffffffffffffffffffffffffff1673ffffffffffffffffffffffffffffffffffffffff16815260200190815260200160002060000160009054906101000a900460ff1660ff161415156121d857600080fd5b6004600760003373ffffffffffffffffffffffffffffffffffffffff1673ffffffffffffffffffffffffffffffffffffffff16815260200190815260200160002060000160006101000a81548160ff021916908360ff16021790555060093390806001815401808255809150509060018203906000526020600020016000909192909190916101000a81548173ffffffffffffffffffffffffffffffffffffffff021916908373ffffffffffffffffffffffffffffffffffffffff16021790555050600d3390806001815401808255809150509060018203906000526020600020016000909192909190916101000a81548173ffffffffffffffffffffffffffffffffffffffff021916908373ffffffffffffffffffffffffffffffffffffffff16021790555050565b600181565b600c8181548110151561231657fe5b906000526020600020016000915054906101000a900473ffffffffffffffffffffffffffffffffffffffff1681565b6000600980549050905090565b6000600760008373ffffffffffffffffffffffffffffffffffffffff1673ffffffffffffffffffffffffffffffffffffffff168152602001908152602001600020600301549050919050565b6000600654905090565b6060600c80548060200260200160405190810160405280929190818152602001828054801561242c57602002820191906000526020600020905b8160009054906101000a900473ffffffffffffffffffffffffffffffffffffffff1673ffffffffffffffffffffffffffffffffffffffff16815260200190600101908083116123e2575b5050505050905090565b6000600760003373ffffffffffffffffffffffffffffffffffffffff1673ffffffffffffffffffffffffffffffffffffffff16815260200190815260200160002060000160009054906101000a900460ff1660ff1614151561249757600080fd5b6002600760003373ffffffffffffffffffffffffffffffffffffffff1673ffffffffffffffffffffffffffffffffffffffff16815260200190815260200160002060000160006101000a81548160ff021916908360ff16021790555060093390806001815401808255809150509060018203906000526020600020016000909192909190916101000a81548173ffffffffffffffffffffffffffffffffffffffff021916908373ffffffffffffffffffffffffffffffffffffffff16021790555050600b3390806001815401808255809150509060018203906000526020600020016000909192909190916101000a81548173ffffffffffffffffffffffffffffffffffffffff021916908373ffffffffffffffffffffffffffffffffffffffff16021790555050565b60045481565b60065481565b6000806000806001600654016125e1611b98565b1115151561267d576040517f08c379a00000000000000000000000000000000000000000000000000000000081526004018080602001828103825260238152602001807f7468652070726576696f757320626c6f636b20686173206265656e207365747481526020017f6c6564000000000000000000000000000000000000000000000000000000000081525060400191505060405180910390fd5b600360ff16600760003373ffffffffffffffffffffffffffffffffffffffff1673ffffffffffffffffffffffffffffffffffffffff16815260200190815260200160002060000160009054906101000a900460ff1660ff1614151561274a576040517f08c379a00000000000000000000000000000000000000000000000000000000081526004018080602001828103825260138152602001807f636f6e736974656e74206e6f646520747970650000000000000000000000000081525060200191505060405180910390fd5b84600760003373ffffffffffffffffffffffffffffffffffffffff1673ffffffffffffffffffffffffffffffffffffffff168152602001908152602001600020600201600082825401925050819055506127a2611b98565b9150600760003373ffffffffffffffffffffffffffffffffffffffff1673ffffffffffffffffffffffffffffffffffffffff1681526020019081526020016000206002015490503373ffffffffffffffffffffffffffffffffffffffff16827f91c6177ffc7594c9cda9df7aea42e157fdbdfd48d9ef1f9a19f0f2c69c66a250836040518082815260200191505060405180910390a38381935093505050915091565b600080600080600160065401612859611b98565b111515156128f5576040517f08c379a00000000000000000000000000000000000000000000000000000000081526004018080602001828103825260238152602001807f7468652070726576696f757320626c6f636b20686173206265656e207365747481526020017f6c6564000000000000000000000000000000000000000000000000000000000081525060400191505060405180910390fd5b6000600760003373ffffffffffffffffffffffffffffffffffffffff1673ffffffffffffffffffffffffffffffffffffffff16815260200190815260200160002060000160009054906101000a900460ff1660ff16141515156129c0576040517f08c379a000000000000000000000000000000000000000000000000000000000815260040180806020018281038252601f8152602001807f616e792072656769737465726564206e6f64652063616e20636f6e73756d650081525060200191505060405180910390fd5b84600760003373ffffffffffffffffffffffffffffffffffffffff1673ffffffffffffffffffffffffffffffffffffffff16815260200190815260200160002060010160008282540192505081905550612a18611b98565b9150600760003373ffffffffffffffffffffffffffffffffffffffff1673ffffffffffffffffffffffffffffffffffffffff1681526020019081526020016000206001015490503373ffffffffffffffffffffffffffffffffffffffff16827f8f431353846ba7f082432bbf0d1f8fc7262b737d03af4ba9a42e748163602aef836040518082815260200191505060405180910390a38181935093505050915091565b600080600080600160065401612acf611b98565b11151515612b6b576040517f08c379a00000000000000000000000000000000000000000000000000000000081526004018080602001828103825260238152602001807f7468652070726576696f757320626c6f636b20686173206265656e207365747481526020017f6c6564000000000000000000000000000000000000000000000000000000000081525060400191505060405180910390fd5b600460ff16600760003373ffffffffffffffffffffffffffffffffffffffff1673ffffffffffffffffffffffffffffffffffffffff16815260200190815260200160002060000160009054906101000a900460ff1660ff16141515612c38576040517f08c379a00000000000000000000000000000000000000000000000000000000081526004018080602001828103825260138152602001807f636f6e736974656e74206e6f646520747970650000000000000000000000000081525060200191505060405180910390fd5b84600760003373ffffffffffffffffffffffffffffffffffffffff1673ffffffffffffffffffffffffffffffffffffffff16815260200190815260200160002060020160008282540192505081905550612c90611b98565b9150600760003373ffffffffffffffffffffffffffffffffffffffff1673ffffffffffffffffffffffffffffffffffffffff1681526020019081526020016000206002015490503373ffffffffffffffffffffffffffffffffffffffff16827ff7d5924849317d56fc298770392a6453b65a6d8a3e6e2b4e4cc61bf5eb930649836040518082815260200191505060405180910390a38381935093505050915091565b6000600760003373ffffffffffffffffffffffffffffffffffffffff1673ffffffffffffffffffffffffffffffffffffffff16815260200190815260200160002060000160009054906101000a900460ff1660ff16141515612d9457600080fd5b6001600760003373ffffffffffffffffffffffffffffffffffffffff1673ffffffffffffffffffffffffffffffffffffffff16815260200190815260200160002060000160006101000a81548160ff021916908360ff16021790555060093390806001815401808255809150509060018203906000526020600020016000909192909190916101000a81548173ffffffffffffffffffffffffffffffffffffffff021916908373ffffffffffffffffffffffffffffffffffffffff16021790555050600a3390806001815401808255809150509060018203906000526020600020016000909192909190916101000a81548173ffffffffffffffffffffffffffffffffffffffff021916908373ffffffffffffffffffffffffffffffffffffffff16021790555050565b60076020528060005260406000206000915090508060000160009054906101000a900460ff16908060010154908060020154908060030154905084565b600354815600a165627a7a72305820a730f881b3dd153bb009c63a3efa28bdd9d1b1b8e84f66c5f99f01a6198270350029",
  "source": "pragma solidity ^0.4.23;\n\n\ncontract Mortal {\n    /* Define variable owner of the type address */\n    address owner;\n\n    /* This function is executed at initialization and sets the owner of the contract */\n    function Mortal() public { owner = msg.sender; }\n\n    /* Function to recover the funds on the contract */\n    function kill() public { if (msg.sender == owner) selfdestruct(owner); }\n}\n\n\ncontract Fogchain_2 is Mortal {\n    struct Account{\n        uint8 role;\n        // amount of electricity consumption, in Joul\n        uint consumption;\n        // amount of output by prosumer or battery station or power station, in Joul\n        uint output;\n        // unpaid expense, negative denotes income\n        int bill;\n    }\n\n    // CONSUMER denotes the registration status, \n    // other roles are regarded as special consumers\n    uint8 constant public CONSUMER = 1;\n    uint8 constant public PROSUMER = 2;\n    // battery station\n    uint8 constant public RETAILER = 3;\n    /* POWER_STATION is not used since we assume the electricity generation\n     * of power station can be derived from the difference between consumption and\n     * prosumer production.  \n     */\n    uint8 constant public POWER_STATION = 4;\n\n    // the starting time of the system, for calculating sequence block number\n    uint public TIME_START;\n    // the interval of a sequence block \n    uint public SEQUENCE_INV;\n    // the renewable electricity price for prosumer output\n    uint public RENEWABLE_PRICE;\n    // the unrenewable electricity price for power station output\n    uint public UNRENEWABLE_PRICE;\n    // the price settled by the last settlement\n    uint public latest_price;\n    // the latest sequence block number settled \n    uint public last_settlement;\n\n    mapping(address => Account) public account_map;\n    // mapping of the event-emitted account address, to avoid duplicated event\n    mapping(address => bool) logged_map;\n    address[] public consumer_addrs;\n    address[] public pure_consumer_addrs;\n    address[] public prosumer_addrs;\n    address[] public retailer_addrs;\n    address[] public power_station_addrs;\n\n    event ConsEvent(uint indexed seqnum, address indexed cons_addr, uint cons);\n    event ProdEvent(uint indexed seqnum, address indexed prod_addr, uint prod);\n    event SellEvent(uint indexed seqnum, address indexed sell_addr, uint sold);\n    event SettleEvent(uint indexed seqnum, uint indexed role, address indexed account_addr, uint consumption, uint output,  int expense);\n    event PsGenEvent(uint indexed seqnum, address indexed ps_addr, uint generation);\n    event PriceEvent(uint indexed seqnum, uint c_price, uint ps_price, uint bs_price, uint p_price);\n\n    function Fogchain_2(uint seq_blk_interval, uint renew_price, uint unre_price) public {\n        SEQUENCE_INV = seq_blk_interval;\n        TIME_START = now;\n        RENEWABLE_PRICE = renew_price;\n        UNRENEWABLE_PRICE = unre_price;\n        latest_price = (RENEWABLE_PRICE+UNRENEWABLE_PRICE)/2;\n        last_settlement = 0;\n    }\n\n    // TODO: this modifier may incur undesirable gas cost due to settlement\n    // make sure the previous sequence block is settled\n    modifier only_completed_prev_seq(){\n        /// TODO: due to the ganache event log filter bug, disable functions with \n        /// this modifier to call settle() (e.g. consumer, prosumer), such that the \n        /// monitor(power station) does not need a filter\n        // if(get_current_seqnum() > (last_settlement+1)){\n        //     settle();\n        // }\n        \n        require(get_current_seqnum() <= last_settlement+1, \"the previous block has been settled\");\n        _;\n    }\n\n    modifier not_registered(){\n        require(account_map[msg.sender].role == 0);\n        _;\n    }\n\n    /// get current sequence block number\n    function get_current_seqnum() constant public  \n        returns (uint seqnum) \n    {\n        uint cur_seqnum = (now - TIME_START)/SEQUENCE_INV;\n        return (cur_seqnum);\n    }\n\n    /// get last settlement sequence block number\n    function get_last_settlement() constant public\n        returns (uint seqnum)\n    {\n        return (last_settlement);\n    }\n\n    function get_bill(address account) constant public\n        returns (int expense)\n    {\n        return account_map[account].bill;\n    }\n\n    function register_consumer() public not_registered{\n        account_map[msg.sender].role = CONSUMER;\n        consumer_addrs.push(msg.sender);\n\tpure_consumer_addrs.push(msg.sender);\n    }\n\n    function register_prosumer() public  not_registered{\n        account_map[msg.sender].role = PROSUMER;\n        consumer_addrs.push(msg.sender);\n        prosumer_addrs.push(msg.sender);\n    }\n\n    function register_battery_station() public not_registered{\n        account_map[msg.sender].role = RETAILER;\n        consumer_addrs.push(msg.sender);\n        retailer_addrs.push(msg.sender);\n    }\n\n    function register_power_station() public not_registered{\n        account_map[msg.sender].role = POWER_STATION;\n        consumer_addrs.push(msg.sender);\n        power_station_addrs.push(msg.sender);\n    }\n\n    /// post consumption, assumption: any role can post_cons\n    function post_cons(uint amount) public only_completed_prev_seq\n        returns (uint seqnum, uint cons) \n    {   \n        require(account_map[msg.sender].role != 0, \"any registered node can consume\");\n        \n        account_map[msg.sender].consumption += amount;\n\n        uint cur_seqnum = get_current_seqnum();\n        uint consumption = account_map[msg.sender].consumption;\n\n        emit ConsEvent(cur_seqnum, msg.sender, consumption);\n        return (cur_seqnum, consumption);\n    }\n\n    /// post production, assumption: only prosumer can post_cons\n    function post_prod(uint amount) public only_completed_prev_seq\n        returns (uint seqnum, uint prod)\n    {   \n        require(account_map[msg.sender].role == PROSUMER, \"consitent node type\");\n\n        account_map[msg.sender].output += amount;\n\n        uint cur_seqnum = get_current_seqnum();\n        uint production = account_map[msg.sender].output;\n\n        emit ProdEvent(cur_seqnum, msg.sender, production);\n        return (seqnum, production);\n    }\n\n    /// post sale, assumption: only retailer(battery station) can post_sell\n    function post_sell(uint amount) public only_completed_prev_seq\n        returns (uint seqnum, uint sold)\n    {\n        require(account_map[msg.sender].role == RETAILER, \"consitent node type\");\n\n        account_map[msg.sender].output += amount;\n\n        uint cur_seqnum = get_current_seqnum();\n        uint cur_sold = account_map[msg.sender].output;\n\n        emit SellEvent(cur_seqnum, msg.sender, cur_sold);\n        return (seqnum, cur_sold);\n    }\n\n    /// post power station generation, assumption: only power station can post_ps_gen\n    function post_ps_gen(uint amount) public only_completed_prev_seq\n        returns (uint seqnum, uint generation)\n    {\n        require(account_map[msg.sender].role == POWER_STATION, \"consitent node type\");\n\n        account_map[msg.sender].output += amount;\n\n        uint cur_seqnum = get_current_seqnum();\n        uint cur_generation = account_map[msg.sender].output;\n\n        emit PsGenEvent(cur_seqnum, msg.sender, cur_generation);\n        return (seqnum, cur_generation);\n    }\n\n    /// settle the previous sequence block\n    function settle() public returns (uint seqnum){\n        uint cur_seqnum = get_current_seqnum();\n        // return 0 if still in the sequence block next to the last_settlement\n        if(cur_seqnum <= last_settlement+1){\n            return 0;\n        }\n\n        uint cons_sum = 0;\n        uint prod_sum = 0;\n        uint bs_sum = 0;\n        uint64 i = 0;\n\n        // consumer_addrs contains all the registered account addresses\n        for (i=0; i<consumer_addrs.length; i++){\n            cons_sum += account_map[consumer_addrs[i]].consumption;\n        }\n\n        for (i=0; i<prosumer_addrs.length; i++){\n            prod_sum += account_map[prosumer_addrs[i]].output;\n        }\n\n        for (i=0; i<retailer_addrs.length; i++){\n            bs_sum += account_map[retailer_addrs[i]].output;\n        }\n\n        // TODO: the power station account is not used here, assuming power station does not consume electricity\n\n        /* TODO BEGIN: \n         * the electricity generation is currently derived from the consumption data.\n         * the derived electricity generation is all asigned to the first registered power station\n         */\n        uint ps_sum = cons_sum - prod_sum - bs_sum;\n        uint revenue_sum = (latest_price*bs_sum)\n                                +(UNRENEWABLE_PRICE*ps_sum)\n                                +(RENEWABLE_PRICE*prod_sum);\n\n        uint c_price;\n        if(cons_sum != 0){\n            c_price = revenue_sum/cons_sum;\n        }\n        else{\n            c_price = latest_price;\n        }\n        emit PriceEvent(cur_seqnum-1, c_price, UNRENEWABLE_PRICE, latest_price, RENEWABLE_PRICE);\n        int expense;\n        uint consumption;\n        uint output;\n\n        // emit event for power station\n        if(power_station_addrs.length == 0){\n            emit SettleEvent(cur_seqnum-1, POWER_STATION, 0x0, 0, ps_sum, -int(ps_sum*UNRENEWABLE_PRICE));\n        }\n        else{\n            expense = -int(ps_sum*UNRENEWABLE_PRICE);\n            account_map[power_station_addrs[0]].bill += expense;\n            emit SettleEvent(cur_seqnum-1, POWER_STATION, power_station_addrs[0], \n                account_map[power_station_addrs[0]].consumption, ps_sum, expense);\n            logged_map[power_station_addrs[0]] = true;\n        }\n        /* TODO END */\n\n        // emit event for battery stations\n        for (i=0; i<retailer_addrs.length; i++){\n            consumption = account_map[retailer_addrs[i]].consumption;\n            output = account_map[retailer_addrs[i]].output;\n            expense = int(c_price*consumption)\n                        - int(latest_price*output);\n            account_map[retailer_addrs[i]].bill += expense;\n            emit SettleEvent(cur_seqnum-1, RETAILER, retailer_addrs[i], consumption, output, expense);\n            logged_map[retailer_addrs[i]] = true;\n        }\n\n        // emit event for prosumers\n        for (i=0; i<prosumer_addrs.length; i++){\n            consumption = account_map[prosumer_addrs[i]].consumption;\n            output = account_map[prosumer_addrs[i]].output;\n            expense = int(c_price*consumption)\n                        - int(RENEWABLE_PRICE*output);\n            account_map[prosumer_addrs[i]].bill += expense;\n            emit SettleEvent(cur_seqnum-1, PROSUMER, prosumer_addrs[i], consumption, output, expense);\n            logged_map[prosumer_addrs[i]] = true;\n        }\n\n        // emit event for consumers who are not battery stations, prosumers or power stations\n        // and clear all the logged record and data accumulation\n        for (i=0; i<consumer_addrs.length; i++){\n            // power station, or prosumer or battery station\n            consumption = account_map[consumer_addrs[i]].consumption;\n            if(logged_map[consumer_addrs[i]] == true){\n                logged_map[consumer_addrs[i]] = false;\n            }\n            // pure consumer\n            else{\n                expense = int(c_price*consumption);\n                emit SettleEvent(cur_seqnum-1, CONSUMER, consumer_addrs[i], consumption, 0, expense);\n            }\n            account_map[consumer_addrs[i]].output = 0;\n            account_map[consumer_addrs[i]].consumption = 0;\n        }\n        \n        latest_price = c_price;\n        last_settlement = cur_seqnum - 1;\n        return cur_seqnum;\n    }\n\t\n    //get all consumers' addresses\n    function get_consumer_addresses() view public\n        returns (address[])\n    {\n        return pure_consumer_addrs;\n    }\n\n    //get all prosumers' addresses\n    function get_prosumer_addresses() view public\n        returns (address[])\n    {\n        return prosumer_addrs;\n    }\n\n    //get all retailers' addresses\n    function get_retailer_addresses() view public\n        returns (address[])\n    {\n        return retailer_addrs;\n    }\n\n    //get all power stations' addresses\n    function get_ps_addresses() view public\n        returns (address[])\n    {\n        return power_station_addrs;\n    }\n\n    //get number of all addresses\n    function get_address_number() view public\n        returns (uint)\n    {\n        return consumer_addrs.length;\n    }\n}\n",
  "sourcePath": "/home/pi/Desktop/Blockchain/Fogchain/smart-contract/contracts/Fogchain_2.sol",
  "compiler": {
    "name": "solc",
    "version": "0.4.24+commit.e67f0147.Emscripten.clang"
  },
  "schemaVersion": "2.0.0",
  "updatedAt": "2018-06-05T07:06:46.073Z"
}