{
  "contractName": "Mortal",
  "abi": [
    {
      "inputs": [],
      "payable": false,
      "stateMutability": "nonpayable",
      "type": "constructor"
    },
    {
      "constant": false,
      "inputs": [],
      "name": "kill",
      "outputs": [],
      "payable": false,
      "stateMutability": "nonpayable",
      "type": "function"
    }
  ],
  "bytecode": "0x608060405234801561001057600080fd5b50336000806101000a81548173ffffffffffffffffffffffffffffffffffffffff021916908373ffffffffffffffffffffffffffffffffffffffff160217905550610114806100606000396000f300608060405260043610603f576000357c0100000000000000000000000000000000000000000000000000000000900463ffffffff16806341c0e1b5146044575b600080fd5b348015604f57600080fd5b5060566058565b005b6000809054906101000a900473ffffffffffffffffffffffffffffffffffffffff1673ffffffffffffffffffffffffffffffffffffffff163373ffffffffffffffffffffffffffffffffffffffff16141560e6576000809054906101000a900473ffffffffffffffffffffffffffffffffffffffff1673ffffffffffffffffffffffffffffffffffffffff16ff5b5600a165627a7a723058206d1103686e93bb19909695627f6918346a2e5e89b28d56570fb33d7cc75178bb0029",
  "source": "pragma solidity ^0.4.19;\n\ncontract Mortal {\n    /* Define variable owner of the type address */\n    address owner;\n\n    /* This function is executed at initialization and sets the owner of the contract */\n    function Mortal() public { owner = msg.sender; }\n\n    /* Function to recover the funds on the contract */\n    function kill() public { if (msg.sender == owner) selfdestruct(owner); }\n}\n\ncontract Greeter is Mortal {\n    /* Define variable greeting of the type string */\n    string greeting;\n\n    /* This runs when the contract is executed */\n    function Greeter(string _greeting) public {\n        greeting = _greeting;\n    }\n\n    /* Main function */\n    function greet() public constant returns (string) {\n        return greeting;\n    }\n}",
  "sourcePath": "/home/pi/Desktop/Blockchain/Fogchain/smart-contract/contracts/Greeter.sol",
  "compiler": {
    "name": "solc",
    "version": "0.4.24+commit.e67f0147.Emscripten.clang"
  },
  "schemaVersion": "2.0.0",
  "updatedAt": "2018-06-05T03:56:41.822Z"
}